{
  "contracts/Lottery.sol": {
    "Lotter": {
      "abi": [
        {
          "inputs": [],
          "stateMutability": "nonpayable",
          "type": "constructor"
        },
        {
          "inputs": [],
          "name": "getBalance",
          "outputs": [
            {
              "internalType": "uint256",
              "name": "",
              "type": "uint256"
            }
          ],
          "stateMutability": "view",
          "type": "function"
        },
        {
          "inputs": [],
          "name": "manager",
          "outputs": [
            {
              "internalType": "address",
              "name": "",
              "type": "address"
            }
          ],
          "stateMutability": "view",
          "type": "function"
        },
        {
          "inputs": [
            {
              "internalType": "uint256",
              "name": "",
              "type": "uint256"
            }
          ],
          "name": "participants",
          "outputs": [
            {
              "internalType": "address payable",
              "name": "",
              "type": "address"
            }
          ],
          "stateMutability": "view",
          "type": "function"
        },
        {
          "inputs": [],
          "name": "random",
          "outputs": [
            {
              "internalType": "uint256",
              "name": "",
              "type": "uint256"
            }
          ],
          "stateMutability": "view",
          "type": "function"
        },
        {
          "inputs": [],
          "name": "selectWinner",
          "outputs": [],
          "stateMutability": "nonpayable",
          "type": "function"
        },
        {
          "stateMutability": "payable",
          "type": "receive"
        }
      ],
      "evm": {
        "bytecode": {
          "linkReferences": {},
          "object": "608060405234801561001057600080fd5b506100437f982487fb2a7b919a90e6e4b090f98a4dfd5f64184a01ef6c25086f3928a5a45e60001b6100ec60201b60201c565b6100757ff991a7671e6a9fad8cb38f581393c8581502d740502865e3be463c5b9012caa560001b6100ec60201b60201c565b6100a77f34d750f53706da6975d53a91e72953a61e30db622cf71b5f928c4fa12423ee3260001b6100ec60201b60201c565b336000806101000a81548173ffffffffffffffffffffffffffffffffffffffff021916908373ffffffffffffffffffffffffffffffffffffffff1602179055506100ef565b50565b610b44806100fe6000396000f3fe60806040526004361061004e5760003560e01c806312065fe01461018157806333a99e04146101ac57806335c1d349146101c3578063481c6a75146102285780635ec01e4d146102695761017c565b3661017c5761007f7fde5dab76a030bba156abff5043f5c765a8e3bff8daf0427a21e85a2cc6adca1360001b610294565b6100ab7fcc324fe2f241ffe78d08c2ac948fd2509fa8df086cae2828bb36ed74734b51c060001b610294565b670de0b6b3a764000034146100bf57600080fd5b6100eb7f613e1c719304ea39078d4899ca19ab9d97bdd7f3fee97e7793d1628ad0a1dd2760001b610294565b6101177fb7612a409c412742f2cf6382a26e8f297ae6404e81c43d0de25e88176e896ed060001b610294565b6001339080600181540180825580915050600190039060005260206000200160009091909190916101000a81548173ffffffffffffffffffffffffffffffffffffffff021916908373ffffffffffffffffffffffffffffffffffffffff160217905550005b600080fd5b34801561018d57600080fd5b50610196610297565b6040518082815260200191505060405180910390f35b3480156101b857600080fd5b506101c161042b565b005b3480156101cf57600080fd5b506101fc600480360360208110156101e657600080fd5b810190808035906020019092919050505061093d565b604051808273ffffffffffffffffffffffffffffffffffffffff16815260200191505060405180910390f35b34801561023457600080fd5b5061023d610979565b604051808273ffffffffffffffffffffffffffffffffffffffff16815260200191505060405180910390f35b34801561027557600080fd5b5061027e61099d565b6040518082815260200191505060405180910390f35b50565b60006102c57f53736442eed4b9c69883e8ed804a305818a48ba5007b1af9d679e6a0a7cac9e460001b610294565b6102f17f5a49c3f25e7e5276d1371df2daf96d0c6921d9e00c58d8888f402267a65e8a7160001b610294565b61031d7fd58533c77061771109ddf8334d92a93a50fef66a401876c3cd519443fc43b61c60001b610294565b6103497f7f961742ad21e24a5b9aa2661cfb18403f7278af7d922c01e1d3ae4d967735f160001b610294565b60008054906101000a900473ffffffffffffffffffffffffffffffffffffffff1673ffffffffffffffffffffffffffffffffffffffff163373ffffffffffffffffffffffffffffffffffffffff16146103a157600080fd5b6103cd7f0e844eebc93a5930d890d9d555410a6b0abb0a7883d4412c1c1271c1c0b5642160001b610294565b6103f97fdbcb9992108b1dee970c7c1b97f8f7049a526fb66e5ece1e0113e77443fbaefd60001b610294565b6104257fcec06136cf4cfa9903d650e9555b4e5b5d9f794bf93e81b744fd88af73e695c460001b610294565b47905090565b6104577f628399f3c7f51e81a5785b52e26961dcb78cbc2dc00c8f75a62008f5422fbb5860001b610294565b6104837fabbf58f7787fe5b918cb8fdcf549aed0e78d97388ee977d70783d8a34b04a2e560001b610294565b6104af7fe3d7eaf222dfabbcdb3fc5479e9b8929aece05002809ff7e255743dc9484ee7460001b610294565b6104db7fbbcfaacd3912ff7733d00a9ecec7d539d6a4c17e3faa48d1d299b3e4b4ee0eed60001b610294565b60008054906101000a900473ffffffffffffffffffffffffffffffffffffffff1673ffffffffffffffffffffffffffffffffffffffff163373ffffffffffffffffffffffffffffffffffffffff161461053357600080fd5b61055f7f98bba847b5735ebb1f9a298af9706153663ef4df7ee369c8661cea051f7f71c460001b610294565b61058b7f860548f4fc6f7c2011719f6c0c8f1412b38f548256782532f84ab1de98f396a660001b610294565b6105b77ff4887caeb505555c198e3feb55f5de23b71227b6119d7df906544847a2bf8ac560001b610294565b6105e37fc71c7992ccedff8fe1cb823041a446142f4279e9fb94a017112abbeb7b2cb11760001b610294565b600360018054905010156105f657600080fd5b6106227f17e1daf5c4c20c46ac75de4309d4533c53dbc6fced3c3c1b29e5ca02db2b1bed60001b610294565b61064e7fcd086ba71febe2c0497b57d58154582637b385363b3f760923b1b4f7e9ae8ae760001b610294565b61067a7ff678b32ba74a5bd71a8cc1ee50996f487dc94ed476c12203e9b05d1cef601ae960001b610294565b600061068461099d565b90506106b27fac5ea3fc73ae973400cd5f0a31f3d3ed505e1d259eef05a705485abd61975bf360001b610294565b6106dd7ea89e48df13517c7b864c802d62979a074bc57838ab6ecb4ce356116644951f60001b610294565b600061070b7fb7665f5eddcdc19b0095c05614396ac5ae78f978cf400bd3f05fd92a6427990a60001b610294565b6107377f761fb43ba2916c5a4ce25b2401715311924a623f890e367907afe3ebfcf6e79a60001b610294565b6000600180549050838161074757fe5b0690506107767f8f4b57b1fe767300dd75ad33e38e2c6d19a922fd35def32ba6e6ee8d8e82a13c60001b610294565b6107a27ff9bff48aba9d15586c98cc81751f7b21550f9f5f40dff236e0d63b4d67ccc77360001b610294565b600181815481106107af57fe5b9060005260206000200160009054906101000a900473ffffffffffffffffffffffffffffffffffffffff1691506108087f365f73c96e7e767c9848de86b76248fc1204699f0bdb05d6e5dcd314da1e560f60001b610294565b6108347fee22e5965678e832697c8fe24371a47873508e8bf5c8dad1c798b231d856c69f60001b610294565b8173ffffffffffffffffffffffffffffffffffffffff166108fc610856610297565b9081150290604051600060405180830381858888f19350505050158015610881573d6000803e3d6000fd5b506108ae7f3d8dc26bbb85015b27283d8b451c252019f2f98cee5f67a26ef4f58a7c6dc9ea60001b610294565b6108da7f4b7427fb41fcea32951a15cae08c5421335192107ae619bf2dd5ea2873a34f5760001b610294565b600067ffffffffffffffff811180156108f257600080fd5b506040519080825280602002602001820160405280156109215781602001602082028036833780820191505090505b5060019080519060200190610937929190610a67565b50505050565b6001818154811061094a57fe5b906000526020600020016000915054906101000a900473ffffffffffffffffffffffffffffffffffffffff1681565b60008054906101000a900473ffffffffffffffffffffffffffffffffffffffff1681565b60006109cb7fc88025c6512e9faed648563811652e034873d228705ea7d2a16ea4a29574537260001b610294565b6109f77fef8c7f20a83d4b0e280ccd0be8593fbf2b5c6748c3f4ab2ce3eaa2b6cfe131b560001b610294565b610a237f7efde1f719266cca24e5c2ae56e8f184c223044571ad543e1b83ad61f580b14360001b610294565b44426001805490506040516020018084815260200183815260200182815260200193505050506040516020818303038152906040528051906020012060001c905090565b828054828255906000526020600020908101928215610ae0579160200282015b82811115610adf5782518260006101000a81548173ffffffffffffffffffffffffffffffffffffffff021916908373ffffffffffffffffffffffffffffffffffffffff16021790555091602001919060010190610a87565b5b509050610aed9190610af1565b5090565b5b80821115610b0a576000816000905550600101610af2565b509056fea26469706673582212201a0d725fcd0fd902b9b5263dbff70293540d8fce99f7af0a0b67e7c64673350564736f6c63430007030033",
          "opcodes": "PUSH1 0x80 PUSH1 0x40 MSTORE CALLVALUE DUP1 ISZERO PUSH2 0x10 JUMPI PUSH1 0x0 DUP1 REVERT JUMPDEST POP PUSH2 0x43 PUSH32 0x982487FB2A7B919A90E6E4B090F98A4DFD5F64184A01EF6C25086F3928A5A45E PUSH1 0x0 SHL PUSH2 0xEC PUSH1 0x20 SHL PUSH1 0x20 SHR JUMP JUMPDEST PUSH2 0x75 PUSH32 0xF991A7671E6A9FAD8CB38F581393C8581502D740502865E3BE463C5B9012CAA5 PUSH1 0x0 SHL PUSH2 0xEC PUSH1 0x20 SHL PUSH1 0x20 SHR JUMP JUMPDEST PUSH2 0xA7 PUSH32 0x34D750F53706DA6975D53A91E72953A61E30DB622CF71B5F928C4FA12423EE32 PUSH1 0x0 SHL PUSH2 0xEC PUSH1 0x20 SHL PUSH1 0x20 SHR JUMP JUMPDEST CALLER PUSH1 0x0 DUP1 PUSH2 0x100 EXP DUP2 SLOAD DUP2 PUSH20 0xFFFFFFFFFFFFFFFFFFFFFFFFFFFFFFFFFFFFFFFF MUL NOT AND SWAP1 DUP4 PUSH20 0xFFFFFFFFFFFFFFFFFFFFFFFFFFFFFFFFFFFFFFFF AND MUL OR SWAP1 SSTORE POP PUSH2 0xEF JUMP JUMPDEST POP JUMP JUMPDEST PUSH2 0xB44 DUP1 PUSH2 0xFE PUSH1 0x0 CODECOPY PUSH1 0x0 RETURN INVALID PUSH1 0x80 PUSH1 0x40 MSTORE PUSH1 0x4 CALLDATASIZE LT PUSH2 0x4E JUMPI PUSH1 0x0 CALLDATALOAD PUSH1 0xE0 SHR DUP1 PUSH4 0x12065FE0 EQ PUSH2 0x181 JUMPI DUP1 PUSH4 0x33A99E04 EQ PUSH2 0x1AC JUMPI DUP1 PUSH4 0x35C1D349 EQ PUSH2 0x1C3 JUMPI DUP1 PUSH4 0x481C6A75 EQ PUSH2 0x228 JUMPI DUP1 PUSH4 0x5EC01E4D EQ PUSH2 0x269 JUMPI PUSH2 0x17C JUMP JUMPDEST CALLDATASIZE PUSH2 0x17C JUMPI PUSH2 0x7F PUSH32 0xDE5DAB76A030BBA156ABFF5043F5C765A8E3BFF8DAF0427A21E85A2CC6ADCA13 PUSH1 0x0 SHL PUSH2 0x294 JUMP JUMPDEST PUSH2 0xAB PUSH32 0xCC324FE2F241FFE78D08C2AC948FD2509FA8DF086CAE2828BB36ED74734B51C0 PUSH1 0x0 SHL PUSH2 0x294 JUMP JUMPDEST PUSH8 0xDE0B6B3A7640000 CALLVALUE EQ PUSH2 0xBF JUMPI PUSH1 0x0 DUP1 REVERT JUMPDEST PUSH2 0xEB PUSH32 0x613E1C719304EA39078D4899CA19AB9D97BDD7F3FEE97E7793D1628AD0A1DD27 PUSH1 0x0 SHL PUSH2 0x294 JUMP JUMPDEST PUSH2 0x117 PUSH32 0xB7612A409C412742F2CF6382A26E8F297AE6404E81C43D0DE25E88176E896ED0 PUSH1 0x0 SHL PUSH2 0x294 JUMP JUMPDEST PUSH1 0x1 CALLER SWAP1 DUP1 PUSH1 0x1 DUP2 SLOAD ADD DUP1 DUP3 SSTORE DUP1 SWAP2 POP POP PUSH1 0x1 SWAP1 SUB SWAP1 PUSH1 0x0 MSTORE PUSH1 0x20 PUSH1 0x0 KECCAK256 ADD PUSH1 0x0 SWAP1 SWAP2 SWAP1 SWAP2 SWAP1 SWAP2 PUSH2 0x100 EXP DUP2 SLOAD DUP2 PUSH20 0xFFFFFFFFFFFFFFFFFFFFFFFFFFFFFFFFFFFFFFFF MUL NOT AND SWAP1 DUP4 PUSH20 0xFFFFFFFFFFFFFFFFFFFFFFFFFFFFFFFFFFFFFFFF AND MUL OR SWAP1 SSTORE POP STOP JUMPDEST PUSH1 0x0 DUP1 REVERT JUMPDEST CALLVALUE DUP1 ISZERO PUSH2 0x18D JUMPI PUSH1 0x0 DUP1 REVERT JUMPDEST POP PUSH2 0x196 PUSH2 0x297 JUMP JUMPDEST PUSH1 0x40 MLOAD DUP1 DUP3 DUP2 MSTORE PUSH1 0x20 ADD SWAP2 POP POP PUSH1 0x40 MLOAD DUP1 SWAP2 SUB SWAP1 RETURN JUMPDEST CALLVALUE DUP1 ISZERO PUSH2 0x1B8 JUMPI PUSH1 0x0 DUP1 REVERT JUMPDEST POP PUSH2 0x1C1 PUSH2 0x42B JUMP JUMPDEST STOP JUMPDEST CALLVALUE DUP1 ISZERO PUSH2 0x1CF JUMPI PUSH1 0x0 DUP1 REVERT JUMPDEST POP PUSH2 0x1FC PUSH1 0x4 DUP1 CALLDATASIZE SUB PUSH1 0x20 DUP2 LT ISZERO PUSH2 0x1E6 JUMPI PUSH1 0x0 DUP1 REVERT JUMPDEST DUP2 ADD SWAP1 DUP1 DUP1 CALLDATALOAD SWAP1 PUSH1 0x20 ADD SWAP1 SWAP3 SWAP2 SWAP1 POP POP POP PUSH2 0x93D JUMP JUMPDEST PUSH1 0x40 MLOAD DUP1 DUP3 PUSH20 0xFFFFFFFFFFFFFFFFFFFFFFFFFFFFFFFFFFFFFFFF AND DUP2 MSTORE PUSH1 0x20 ADD SWAP2 POP POP PUSH1 0x40 MLOAD DUP1 SWAP2 SUB SWAP1 RETURN JUMPDEST CALLVALUE DUP1 ISZERO PUSH2 0x234 JUMPI PUSH1 0x0 DUP1 REVERT JUMPDEST POP PUSH2 0x23D PUSH2 0x979 JUMP JUMPDEST PUSH1 0x40 MLOAD DUP1 DUP3 PUSH20 0xFFFFFFFFFFFFFFFFFFFFFFFFFFFFFFFFFFFFFFFF AND DUP2 MSTORE PUSH1 0x20 ADD SWAP2 POP POP PUSH1 0x40 MLOAD DUP1 SWAP2 SUB SWAP1 RETURN JUMPDEST CALLVALUE DUP1 ISZERO PUSH2 0x275 JUMPI PUSH1 0x0 DUP1 REVERT JUMPDEST POP PUSH2 0x27E PUSH2 0x99D JUMP JUMPDEST PUSH1 0x40 MLOAD DUP1 DUP3 DUP2 MSTORE PUSH1 0x20 ADD SWAP2 POP POP PUSH1 0x40 MLOAD DUP1 SWAP2 SUB SWAP1 RETURN JUMPDEST POP JUMP JUMPDEST PUSH1 0x0 PUSH2 0x2C5 PUSH32 0x53736442EED4B9C69883E8ED804A305818A48BA5007B1AF9D679E6A0A7CAC9E4 PUSH1 0x0 SHL PUSH2 0x294 JUMP JUMPDEST PUSH2 0x2F1 PUSH32 0x5A49C3F25E7E5276D1371DF2DAF96D0C6921D9E00C58D8888F402267A65E8A71 PUSH1 0x0 SHL PUSH2 0x294 JUMP JUMPDEST PUSH2 0x31D PUSH32 0xD58533C77061771109DDF8334D92A93A50FEF66A401876C3CD519443FC43B61C PUSH1 0x0 SHL PUSH2 0x294 JUMP JUMPDEST PUSH2 0x349 PUSH32 0x7F961742AD21E24A5B9AA2661CFB18403F7278AF7D922C01E1D3AE4D967735F1 PUSH1 0x0 SHL PUSH2 0x294 JUMP JUMPDEST PUSH1 0x0 DUP1 SLOAD SWAP1 PUSH2 0x100 EXP SWAP1 DIV PUSH20 0xFFFFFFFFFFFFFFFFFFFFFFFFFFFFFFFFFFFFFFFF AND PUSH20 0xFFFFFFFFFFFFFFFFFFFFFFFFFFFFFFFFFFFFFFFF AND CALLER PUSH20 0xFFFFFFFFFFFFFFFFFFFFFFFFFFFFFFFFFFFFFFFF AND EQ PUSH2 0x3A1 JUMPI PUSH1 0x0 DUP1 REVERT JUMPDEST PUSH2 0x3CD PUSH32 0xE844EEBC93A5930D890D9D555410A6B0ABB0A7883D4412C1C1271C1C0B56421 PUSH1 0x0 SHL PUSH2 0x294 JUMP JUMPDEST PUSH2 0x3F9 PUSH32 0xDBCB9992108B1DEE970C7C1B97F8F7049A526FB66E5ECE1E0113E77443FBAEFD PUSH1 0x0 SHL PUSH2 0x294 JUMP JUMPDEST PUSH2 0x425 PUSH32 0xCEC06136CF4CFA9903D650E9555B4E5B5D9F794BF93E81B744FD88AF73E695C4 PUSH1 0x0 SHL PUSH2 0x294 JUMP JUMPDEST SELFBALANCE SWAP1 POP SWAP1 JUMP JUMPDEST PUSH2 0x457 PUSH32 0x628399F3C7F51E81A5785B52E26961DCB78CBC2DC00C8F75A62008F5422FBB58 PUSH1 0x0 SHL PUSH2 0x294 JUMP JUMPDEST PUSH2 0x483 PUSH32 0xABBF58F7787FE5B918CB8FDCF549AED0E78D97388EE977D70783D8A34B04A2E5 PUSH1 0x0 SHL PUSH2 0x294 JUMP JUMPDEST PUSH2 0x4AF PUSH32 0xE3D7EAF222DFABBCDB3FC5479E9B8929AECE05002809FF7E255743DC9484EE74 PUSH1 0x0 SHL PUSH2 0x294 JUMP JUMPDEST PUSH2 0x4DB PUSH32 0xBBCFAACD3912FF7733D00A9ECEC7D539D6A4C17E3FAA48D1D299B3E4B4EE0EED PUSH1 0x0 SHL PUSH2 0x294 JUMP JUMPDEST PUSH1 0x0 DUP1 SLOAD SWAP1 PUSH2 0x100 EXP SWAP1 DIV PUSH20 0xFFFFFFFFFFFFFFFFFFFFFFFFFFFFFFFFFFFFFFFF AND PUSH20 0xFFFFFFFFFFFFFFFFFFFFFFFFFFFFFFFFFFFFFFFF AND CALLER PUSH20 0xFFFFFFFFFFFFFFFFFFFFFFFFFFFFFFFFFFFFFFFF AND EQ PUSH2 0x533 JUMPI PUSH1 0x0 DUP1 REVERT JUMPDEST PUSH2 0x55F PUSH32 0x98BBA847B5735EBB1F9A298AF9706153663EF4DF7EE369C8661CEA051F7F71C4 PUSH1 0x0 SHL PUSH2 0x294 JUMP JUMPDEST PUSH2 0x58B PUSH32 0x860548F4FC6F7C2011719F6C0C8F1412B38F548256782532F84AB1DE98F396A6 PUSH1 0x0 SHL PUSH2 0x294 JUMP JUMPDEST PUSH2 0x5B7 PUSH32 0xF4887CAEB505555C198E3FEB55F5DE23B71227B6119D7DF906544847A2BF8AC5 PUSH1 0x0 SHL PUSH2 0x294 JUMP JUMPDEST PUSH2 0x5E3 PUSH32 0xC71C7992CCEDFF8FE1CB823041A446142F4279E9FB94A017112ABBEB7B2CB117 PUSH1 0x0 SHL PUSH2 0x294 JUMP JUMPDEST PUSH1 0x3 PUSH1 0x1 DUP1 SLOAD SWAP1 POP LT ISZERO PUSH2 0x5F6 JUMPI PUSH1 0x0 DUP1 REVERT JUMPDEST PUSH2 0x622 PUSH32 0x17E1DAF5C4C20C46AC75DE4309D4533C53DBC6FCED3C3C1B29E5CA02DB2B1BED PUSH1 0x0 SHL PUSH2 0x294 JUMP JUMPDEST PUSH2 0x64E PUSH32 0xCD086BA71FEBE2C0497B57D58154582637B385363B3F760923B1B4F7E9AE8AE7 PUSH1 0x0 SHL PUSH2 0x294 JUMP JUMPDEST PUSH2 0x67A PUSH32 0xF678B32BA74A5BD71A8CC1EE50996F487DC94ED476C12203E9B05D1CEF601AE9 PUSH1 0x0 SHL PUSH2 0x294 JUMP JUMPDEST PUSH1 0x0 PUSH2 0x684 PUSH2 0x99D JUMP JUMPDEST SWAP1 POP PUSH2 0x6B2 PUSH32 0xAC5EA3FC73AE973400CD5F0A31F3D3ED505E1D259EEF05A705485ABD61975BF3 PUSH1 0x0 SHL PUSH2 0x294 JUMP JUMPDEST PUSH2 0x6DD PUSH31 0xA89E48DF13517C7B864C802D62979A074BC57838AB6ECB4CE356116644951F PUSH1 0x0 SHL PUSH2 0x294 JUMP JUMPDEST PUSH1 0x0 PUSH2 0x70B PUSH32 0xB7665F5EDDCDC19B0095C05614396AC5AE78F978CF400BD3F05FD92A6427990A PUSH1 0x0 SHL PUSH2 0x294 JUMP JUMPDEST PUSH2 0x737 PUSH32 0x761FB43BA2916C5A4CE25B2401715311924A623F890E367907AFE3EBFCF6E79A PUSH1 0x0 SHL PUSH2 0x294 JUMP JUMPDEST PUSH1 0x0 PUSH1 0x1 DUP1 SLOAD SWAP1 POP DUP4 DUP2 PUSH2 0x747 JUMPI INVALID JUMPDEST MOD SWAP1 POP PUSH2 0x776 PUSH32 0x8F4B57B1FE767300DD75AD33E38E2C6D19A922FD35DEF32BA6E6EE8D8E82A13C PUSH1 0x0 SHL PUSH2 0x294 JUMP JUMPDEST PUSH2 0x7A2 PUSH32 0xF9BFF48ABA9D15586C98CC81751F7B21550F9F5F40DFF236E0D63B4D67CCC773 PUSH1 0x0 SHL PUSH2 0x294 JUMP JUMPDEST PUSH1 0x1 DUP2 DUP2 SLOAD DUP2 LT PUSH2 0x7AF JUMPI INVALID JUMPDEST SWAP1 PUSH1 0x0 MSTORE PUSH1 0x20 PUSH1 0x0 KECCAK256 ADD PUSH1 0x0 SWAP1 SLOAD SWAP1 PUSH2 0x100 EXP SWAP1 DIV PUSH20 0xFFFFFFFFFFFFFFFFFFFFFFFFFFFFFFFFFFFFFFFF AND SWAP2 POP PUSH2 0x808 PUSH32 0x365F73C96E7E767C9848DE86B76248FC1204699F0BDB05D6E5DCD314DA1E560F PUSH1 0x0 SHL PUSH2 0x294 JUMP JUMPDEST PUSH2 0x834 PUSH32 0xEE22E5965678E832697C8FE24371A47873508E8BF5C8DAD1C798B231D856C69F PUSH1 0x0 SHL PUSH2 0x294 JUMP JUMPDEST DUP2 PUSH20 0xFFFFFFFFFFFFFFFFFFFFFFFFFFFFFFFFFFFFFFFF AND PUSH2 0x8FC PUSH2 0x856 PUSH2 0x297 JUMP JUMPDEST SWAP1 DUP2 ISZERO MUL SWAP1 PUSH1 0x40 MLOAD PUSH1 0x0 PUSH1 0x40 MLOAD DUP1 DUP4 SUB DUP2 DUP6 DUP9 DUP9 CALL SWAP4 POP POP POP POP ISZERO DUP1 ISZERO PUSH2 0x881 JUMPI RETURNDATASIZE PUSH1 0x0 DUP1 RETURNDATACOPY RETURNDATASIZE PUSH1 0x0 REVERT JUMPDEST POP PUSH2 0x8AE PUSH32 0x3D8DC26BBB85015B27283D8B451C252019F2F98CEE5F67A26EF4F58A7C6DC9EA PUSH1 0x0 SHL PUSH2 0x294 JUMP JUMPDEST PUSH2 0x8DA PUSH32 0x4B7427FB41FCEA32951A15CAE08C5421335192107AE619BF2DD5EA2873A34F57 PUSH1 0x0 SHL PUSH2 0x294 JUMP JUMPDEST PUSH1 0x0 PUSH8 0xFFFFFFFFFFFFFFFF DUP2 GT DUP1 ISZERO PUSH2 0x8F2 JUMPI PUSH1 0x0 DUP1 REVERT JUMPDEST POP PUSH1 0x40 MLOAD SWAP1 DUP1 DUP3 MSTORE DUP1 PUSH1 0x20 MUL PUSH1 0x20 ADD DUP3 ADD PUSH1 0x40 MSTORE DUP1 ISZERO PUSH2 0x921 JUMPI DUP2 PUSH1 0x20 ADD PUSH1 0x20 DUP3 MUL DUP1 CALLDATASIZE DUP4 CALLDATACOPY DUP1 DUP3 ADD SWAP2 POP POP SWAP1 POP JUMPDEST POP PUSH1 0x1 SWAP1 DUP1 MLOAD SWAP1 PUSH1 0x20 ADD SWAP1 PUSH2 0x937 SWAP3 SWAP2 SWAP1 PUSH2 0xA67 JUMP JUMPDEST POP POP POP POP JUMP JUMPDEST PUSH1 0x1 DUP2 DUP2 SLOAD DUP2 LT PUSH2 0x94A JUMPI INVALID JUMPDEST SWAP1 PUSH1 0x0 MSTORE PUSH1 0x20 PUSH1 0x0 KECCAK256 ADD PUSH1 0x0 SWAP2 POP SLOAD SWAP1 PUSH2 0x100 EXP SWAP1 DIV PUSH20 0xFFFFFFFFFFFFFFFFFFFFFFFFFFFFFFFFFFFFFFFF AND DUP2 JUMP JUMPDEST PUSH1 0x0 DUP1 SLOAD SWAP1 PUSH2 0x100 EXP SWAP1 DIV PUSH20 0xFFFFFFFFFFFFFFFFFFFFFFFFFFFFFFFFFFFFFFFF AND DUP2 JUMP JUMPDEST PUSH1 0x0 PUSH2 0x9CB PUSH32 0xC88025C6512E9FAED648563811652E034873D228705EA7D2A16EA4A295745372 PUSH1 0x0 SHL PUSH2 0x294 JUMP JUMPDEST PUSH2 0x9F7 PUSH32 0xEF8C7F20A83D4B0E280CCD0BE8593FBF2B5C6748C3F4AB2CE3EAA2B6CFE131B5 PUSH1 0x0 SHL PUSH2 0x294 JUMP JUMPDEST PUSH2 0xA23 PUSH32 0x7EFDE1F719266CCA24E5C2AE56E8F184C223044571AD543E1B83AD61F580B143 PUSH1 0x0 SHL PUSH2 0x294 JUMP JUMPDEST DIFFICULTY TIMESTAMP PUSH1 0x1 DUP1 SLOAD SWAP1 POP PUSH1 0x40 MLOAD PUSH1 0x20 ADD DUP1 DUP5 DUP2 MSTORE PUSH1 0x20 ADD DUP4 DUP2 MSTORE PUSH1 0x20 ADD DUP3 DUP2 MSTORE PUSH1 0x20 ADD SWAP4 POP POP POP POP PUSH1 0x40 MLOAD PUSH1 0x20 DUP2 DUP4 SUB SUB DUP2 MSTORE SWAP1 PUSH1 0x40 MSTORE DUP1 MLOAD SWAP1 PUSH1 0x20 ADD KECCAK256 PUSH1 0x0 SHR SWAP1 POP SWAP1 JUMP JUMPDEST DUP3 DUP1 SLOAD DUP3 DUP3 SSTORE SWAP1 PUSH1 0x0 MSTORE PUSH1 0x20 PUSH1 0x0 KECCAK256 SWAP1 DUP2 ADD SWAP3 DUP3 ISZERO PUSH2 0xAE0 JUMPI SWAP2 PUSH1 0x20 MUL DUP3 ADD JUMPDEST DUP3 DUP2 GT ISZERO PUSH2 0xADF JUMPI DUP3 MLOAD DUP3 PUSH1 0x0 PUSH2 0x100 EXP DUP2 SLOAD DUP2 PUSH20 0xFFFFFFFFFFFFFFFFFFFFFFFFFFFFFFFFFFFFFFFF MUL NOT AND SWAP1 DUP4 PUSH20 0xFFFFFFFFFFFFFFFFFFFFFFFFFFFFFFFFFFFFFFFF AND MUL OR SWAP1 SSTORE POP SWAP2 PUSH1 0x20 ADD SWAP2 SWAP1 PUSH1 0x1 ADD SWAP1 PUSH2 0xA87 JUMP JUMPDEST JUMPDEST POP SWAP1 POP PUSH2 0xAED SWAP2 SWAP1 PUSH2 0xAF1 JUMP JUMPDEST POP SWAP1 JUMP JUMPDEST JUMPDEST DUP1 DUP3 GT ISZERO PUSH2 0xB0A JUMPI PUSH1 0x0 DUP2 PUSH1 0x0 SWAP1 SSTORE POP PUSH1 0x1 ADD PUSH2 0xAF2 JUMP JUMPDEST POP SWAP1 JUMP INVALID LOG2 PUSH5 0x6970667358 0x22 SLT KECCAK256 BYTE 0xD PUSH19 0x5FCD0FD902B9B5263DBFF70293540D8FCE99F7 0xAF EXP SIGNEXTEND PUSH8 0xE7C6467335056473 PUSH16 0x6C634300070300330000000000000000 "
        },
        "methodIdentifiers": {
          "getBalance()": "12065fe0",
          "manager()": "481c6a75",
          "participants(uint256)": "35c1d349",
          "random()": "5ec01e4d",
          "selectWinner()": "33a99e04"
        }
      }
    }
  }
}