{
  "_format": "hh-sol-artifact-1",
  "contractName": "Lotter",
  "sourceName": "contracts/Lottery.sol",
  "abi": [
    {
      "inputs": [],
      "stateMutability": "nonpayable",
      "type": "constructor"
    },
    {
      "inputs": [],
      "name": "getBalance",
      "outputs": [
        {
          "internalType": "uint256",
          "name": "",
          "type": "uint256"
        }
      ],
      "stateMutability": "view",
      "type": "function"
    },
    {
      "inputs": [],
      "name": "manager",
      "outputs": [
        {
          "internalType": "address",
          "name": "",
          "type": "address"
        }
      ],
      "stateMutability": "view",
      "type": "function"
    },
    {
      "inputs": [
        {
          "internalType": "uint256",
          "name": "",
          "type": "uint256"
        }
      ],
      "name": "participants",
      "outputs": [
        {
          "internalType": "address payable",
          "name": "",
          "type": "address"
        }
      ],
      "stateMutability": "view",
      "type": "function"
    },
    {
      "inputs": [],
      "name": "random",
      "outputs": [
        {
          "internalType": "uint256",
          "name": "",
          "type": "uint256"
        }
      ],
      "stateMutability": "view",
      "type": "function"
    },
    {
      "inputs": [],
      "name": "selectWinner",
      "outputs": [],
      "stateMutability": "nonpayable",
      "type": "function"
    },
    {
      "stateMutability": "payable",
      "type": "receive"
    }
  ],
  "bytecode": "0x608060405234801561001057600080fd5b506100437f982487fb2a7b919a90e6e4b090f98a4dfd5f64184a01ef6c25086f3928a5a45e60001b6100ec60201b60201c565b6100757ff991a7671e6a9fad8cb38f581393c8581502d740502865e3be463c5b9012caa560001b6100ec60201b60201c565b6100a77f34d750f53706da6975d53a91e72953a61e30db622cf71b5f928c4fa12423ee3260001b6100ec60201b60201c565b336000806101000a81548173ffffffffffffffffffffffffffffffffffffffff021916908373ffffffffffffffffffffffffffffffffffffffff1602179055506100ef565b50565b610b44806100fe6000396000f3fe60806040526004361061004e5760003560e01c806312065fe01461018157806333a99e04146101ac57806335c1d349146101c3578063481c6a75146102285780635ec01e4d146102695761017c565b3661017c5761007f7fde5dab76a030bba156abff5043f5c765a8e3bff8daf0427a21e85a2cc6adca1360001b610294565b6100ab7fcc324fe2f241ffe78d08c2ac948fd2509fa8df086cae2828bb36ed74734b51c060001b610294565b670de0b6b3a764000034146100bf57600080fd5b6100eb7f613e1c719304ea39078d4899ca19ab9d97bdd7f3fee97e7793d1628ad0a1dd2760001b610294565b6101177fb7612a409c412742f2cf6382a26e8f297ae6404e81c43d0de25e88176e896ed060001b610294565b6001339080600181540180825580915050600190039060005260206000200160009091909190916101000a81548173ffffffffffffffffffffffffffffffffffffffff021916908373ffffffffffffffffffffffffffffffffffffffff160217905550005b600080fd5b34801561018d57600080fd5b50610196610297565b6040518082815260200191505060405180910390f35b3480156101b857600080fd5b506101c161042b565b005b3480156101cf57600080fd5b506101fc600480360360208110156101e657600080fd5b810190808035906020019092919050505061093d565b604051808273ffffffffffffffffffffffffffffffffffffffff16815260200191505060405180910390f35b34801561023457600080fd5b5061023d610979565b604051808273ffffffffffffffffffffffffffffffffffffffff16815260200191505060405180910390f35b34801561027557600080fd5b5061027e61099d565b6040518082815260200191505060405180910390f35b50565b60006102c57f53736442eed4b9c69883e8ed804a305818a48ba5007b1af9d679e6a0a7cac9e460001b610294565b6102f17f5a49c3f25e7e5276d1371df2daf96d0c6921d9e00c58d8888f402267a65e8a7160001b610294565b61031d7fd58533c77061771109ddf8334d92a93a50fef66a401876c3cd519443fc43b61c60001b610294565b6103497f7f961742ad21e24a5b9aa2661cfb18403f7278af7d922c01e1d3ae4d967735f160001b610294565b60008054906101000a900473ffffffffffffffffffffffffffffffffffffffff1673ffffffffffffffffffffffffffffffffffffffff163373ffffffffffffffffffffffffffffffffffffffff16146103a157600080fd5b6103cd7f0e844eebc93a5930d890d9d555410a6b0abb0a7883d4412c1c1271c1c0b5642160001b610294565b6103f97fdbcb9992108b1dee970c7c1b97f8f7049a526fb66e5ece1e0113e77443fbaefd60001b610294565b6104257fcec06136cf4cfa9903d650e9555b4e5b5d9f794bf93e81b744fd88af73e695c460001b610294565b47905090565b6104577f628399f3c7f51e81a5785b52e26961dcb78cbc2dc00c8f75a62008f5422fbb5860001b610294565b6104837fabbf58f7787fe5b918cb8fdcf549aed0e78d97388ee977d70783d8a34b04a2e560001b610294565b6104af7fe3d7eaf222dfabbcdb3fc5479e9b8929aece05002809ff7e255743dc9484ee7460001b610294565b6104db7fbbcfaacd3912ff7733d00a9ecec7d539d6a4c17e3faa48d1d299b3e4b4ee0eed60001b610294565b60008054906101000a900473ffffffffffffffffffffffffffffffffffffffff1673ffffffffffffffffffffffffffffffffffffffff163373ffffffffffffffffffffffffffffffffffffffff161461053357600080fd5b61055f7f98bba847b5735ebb1f9a298af9706153663ef4df7ee369c8661cea051f7f71c460001b610294565b61058b7f860548f4fc6f7c2011719f6c0c8f1412b38f548256782532f84ab1de98f396a660001b610294565b6105b77ff4887caeb505555c198e3feb55f5de23b71227b6119d7df906544847a2bf8ac560001b610294565b6105e37fc71c7992ccedff8fe1cb823041a446142f4279e9fb94a017112abbeb7b2cb11760001b610294565b600360018054905010156105f657600080fd5b6106227f17e1daf5c4c20c46ac75de4309d4533c53dbc6fced3c3c1b29e5ca02db2b1bed60001b610294565b61064e7fcd086ba71febe2c0497b57d58154582637b385363b3f760923b1b4f7e9ae8ae760001b610294565b61067a7ff678b32ba74a5bd71a8cc1ee50996f487dc94ed476c12203e9b05d1cef601ae960001b610294565b600061068461099d565b90506106b27fac5ea3fc73ae973400cd5f0a31f3d3ed505e1d259eef05a705485abd61975bf360001b610294565b6106dd7ea89e48df13517c7b864c802d62979a074bc57838ab6ecb4ce356116644951f60001b610294565b600061070b7fb7665f5eddcdc19b0095c05614396ac5ae78f978cf400bd3f05fd92a6427990a60001b610294565b6107377f761fb43ba2916c5a4ce25b2401715311924a623f890e367907afe3ebfcf6e79a60001b610294565b6000600180549050838161074757fe5b0690506107767f8f4b57b1fe767300dd75ad33e38e2c6d19a922fd35def32ba6e6ee8d8e82a13c60001b610294565b6107a27ff9bff48aba9d15586c98cc81751f7b21550f9f5f40dff236e0d63b4d67ccc77360001b610294565b600181815481106107af57fe5b9060005260206000200160009054906101000a900473ffffffffffffffffffffffffffffffffffffffff1691506108087f365f73c96e7e767c9848de86b76248fc1204699f0bdb05d6e5dcd314da1e560f60001b610294565b6108347fee22e5965678e832697c8fe24371a47873508e8bf5c8dad1c798b231d856c69f60001b610294565b8173ffffffffffffffffffffffffffffffffffffffff166108fc610856610297565b9081150290604051600060405180830381858888f19350505050158015610881573d6000803e3d6000fd5b506108ae7f3d8dc26bbb85015b27283d8b451c252019f2f98cee5f67a26ef4f58a7c6dc9ea60001b610294565b6108da7f4b7427fb41fcea32951a15cae08c5421335192107ae619bf2dd5ea2873a34f5760001b610294565b600067ffffffffffffffff811180156108f257600080fd5b506040519080825280602002602001820160405280156109215781602001602082028036833780820191505090505b5060019080519060200190610937929190610a67565b50505050565b6001818154811061094a57fe5b906000526020600020016000915054906101000a900473ffffffffffffffffffffffffffffffffffffffff1681565b60008054906101000a900473ffffffffffffffffffffffffffffffffffffffff1681565b60006109cb7fc88025c6512e9faed648563811652e034873d228705ea7d2a16ea4a29574537260001b610294565b6109f77fef8c7f20a83d4b0e280ccd0be8593fbf2b5c6748c3f4ab2ce3eaa2b6cfe131b560001b610294565b610a237f7efde1f719266cca24e5c2ae56e8f184c223044571ad543e1b83ad61f580b14360001b610294565b44426001805490506040516020018084815260200183815260200182815260200193505050506040516020818303038152906040528051906020012060001c905090565b828054828255906000526020600020908101928215610ae0579160200282015b82811115610adf5782518260006101000a81548173ffffffffffffffffffffffffffffffffffffffff021916908373ffffffffffffffffffffffffffffffffffffffff16021790555091602001919060010190610a87565b5b509050610aed9190610af1565b5090565b5b80821115610b0a576000816000905550600101610af2565b509056fea26469706673582212201a0d725fcd0fd902b9b5263dbff70293540d8fce99f7af0a0b67e7c64673350564736f6c63430007030033",
  "linkReferences": {},
  "deployedLinkReferences": {}
}